{
  "_format": "hh-sol-artifact-1",
  "contractName": "ProductDetection",
  "sourceName": "contracts/ProductDetection.sol",
  "abi": [
    {
      "inputs": [],
      "stateMutability": "nonpayable",
      "type": "constructor"
    },
    {
      "anonymous": false,
      "inputs": [
        {
          "indexed": false,
          "internalType": "string",
          "name": "name",
          "type": "string"
        },
        {
          "indexed": false,
          "internalType": "address",
          "name": "_address",
          "type": "address"
        }
      ],
      "name": "ManufacturerCreated",
      "type": "event"
    },
    {
      "anonymous": false,
      "inputs": [
        {
          "indexed": false,
          "internalType": "uint256",
          "name": "id",
          "type": "uint256"
        },
        {
          "indexed": false,
          "internalType": "address",
          "name": "newOwner",
          "type": "address"
        }
      ],
      "name": "OwnershipUpdated",
      "type": "event"
    },
    {
      "anonymous": false,
      "inputs": [
        {
          "indexed": false,
          "internalType": "uint256",
          "name": "id",
          "type": "uint256"
        },
        {
          "indexed": false,
          "internalType": "address",
          "name": "manufacturer",
          "type": "address"
        }
      ],
      "name": "ProductCreated",
      "type": "event"
    },
    {
      "inputs": [
        {
          "internalType": "string",
          "name": "_name",
          "type": "string"
        },
        {
          "internalType": "string",
          "name": "_website",
          "type": "string"
        },
        {
          "internalType": "address",
          "name": "_address",
          "type": "address"
        }
      ],
      "name": "createManufacturer",
      "outputs": [],
      "stateMutability": "nonpayable",
      "type": "function"
    },
    {
      "inputs": [
        {
          "internalType": "string",
          "name": "_name",
          "type": "string"
        },
        {
          "internalType": "string",
          "name": "_model",
          "type": "string"
        },
        {
          "internalType": "uint256",
          "name": "_price",
          "type": "uint256"
        }
      ],
      "name": "createProduct",
      "outputs": [],
      "stateMutability": "nonpayable",
      "type": "function"
    },
    {
      "inputs": [
        {
          "internalType": "address",
          "name": "_address",
          "type": "address"
        }
      ],
      "name": "getManufacture",
      "outputs": [
        {
          "components": [
            {
              "internalType": "bool",
              "name": "exists",
              "type": "bool"
            },
            {
              "internalType": "string",
              "name": "name",
              "type": "string"
            },
            {
              "internalType": "string",
              "name": "website",
              "type": "string"
            },
            {
              "internalType": "address",
              "name": "wallet_address",
              "type": "address"
            }
          ],
          "internalType": "struct ProductDetection.Manufacturer",
          "name": "",
          "type": "tuple"
        }
      ],
      "stateMutability": "view",
      "type": "function"
    },
    {
      "inputs": [
        {
          "internalType": "uint256",
          "name": "_id",
          "type": "uint256"
        }
      ],
      "name": "getProduct",
      "outputs": [
        {
          "components": [
            {
              "internalType": "bool",
              "name": "exists",
              "type": "bool"
            },
            {
              "internalType": "uint256",
              "name": "id",
              "type": "uint256"
            },
            {
              "internalType": "string",
              "name": "name",
              "type": "string"
            },
            {
              "internalType": "string",
              "name": "model",
              "type": "string"
            },
            {
              "internalType": "uint256",
              "name": "price",
              "type": "uint256"
            },
            {
              "internalType": "address",
              "name": "manufacturer",
              "type": "address"
            },
            {
              "internalType": "address",
              "name": "curOwner",
              "type": "address"
            },
            {
              "internalType": "address[]",
              "name": "owners",
              "type": "address[]"
            }
          ],
          "internalType": "struct ProductDetection.Product",
          "name": "",
          "type": "tuple"
        }
      ],
      "stateMutability": "view",
      "type": "function"
    },
    {
      "inputs": [
        {
          "internalType": "address",
          "name": "",
          "type": "address"
        }
      ],
      "name": "manufacturers",
      "outputs": [
        {
          "internalType": "bool",
          "name": "exists",
          "type": "bool"
        },
        {
          "internalType": "string",
          "name": "name",
          "type": "string"
        },
        {
          "internalType": "string",
          "name": "website",
          "type": "string"
        },
        {
          "internalType": "address",
          "name": "wallet_address",
          "type": "address"
        }
      ],
      "stateMutability": "view",
      "type": "function"
    },
    {
      "inputs": [],
      "name": "owner",
      "outputs": [
        {
          "internalType": "address",
          "name": "",
          "type": "address"
        }
      ],
      "stateMutability": "view",
      "type": "function"
    },
    {
      "inputs": [
        {
          "internalType": "uint256",
          "name": "_id",
          "type": "uint256"
        },
        {
          "internalType": "address",
          "name": "_newOwner",
          "type": "address"
        }
      ],
      "name": "updateOwnership",
      "outputs": [],
      "stateMutability": "nonpayable",
      "type": "function"
    }
  ],
  "bytecode": "0x6080604052600060015534801561001557600080fd5b50336000806101000a81548173ffffffffffffffffffffffffffffffffffffffff021916908373ffffffffffffffffffffffffffffffffffffffff160217905550611884806100656000396000f3fe608060405234801561001057600080fd5b506004361061007d5760003560e01c80638da5cb5b1161005b5780638da5cb5b14610101578063a14222091461011f578063b9db15b41461013b578063cc0266f71461016b5761007d565b8063459ce122146100825780636b5eb09c146100b25780636c640a5e146100e5575b600080fd5b61009c60048036038101906100979190610f3b565b610187565b6040516100a99190611515565b60405180910390f35b6100cc60048036038101906100c79190610f3b565b610375565b6040516100dc9493929190611432565b60405180910390f35b6100ff60048036038101906100fa9190610f64565b6104e2565b005b610109610684565b6040516101169190611417565b60405180910390f35b61013960048036038101906101349190610fe3565b6106a8565b005b61015560048036038101906101509190611062565b610909565b6040516101629190611537565b60405180910390f35b6101856004803603810190610180919061108b565b610bc4565b005b61018f610d53565b600260008373ffffffffffffffffffffffffffffffffffffffff1673ffffffffffffffffffffffffffffffffffffffff1681526020019081526020016000206040518060800160405290816000820160009054906101000a900460ff1615151515815260200160018201805461020490611707565b80601f016020809104026020016040519081016040528092919081815260200182805461023090611707565b801561027d5780601f106102525761010080835404028352916020019161027d565b820191906000526020600020905b81548152906001019060200180831161026057829003601f168201915b5050505050815260200160028201805461029690611707565b80601f01602080910402602001604051908101604052809291908181526020018280546102c290611707565b801561030f5780601f106102e45761010080835404028352916020019161030f565b820191906000526020600020905b8154815290600101906020018083116102f257829003601f168201915b505050505081526020016003820160009054906101000a900473ffffffffffffffffffffffffffffffffffffffff1673ffffffffffffffffffffffffffffffffffffffff1673ffffffffffffffffffffffffffffffffffffffff16815250509050919050565b60026020528060005260406000206000915090508060000160009054906101000a900460ff16908060010180546103ab90611707565b80601f01602080910402602001604051908101604052809291908181526020018280546103d790611707565b80156104245780601f106103f957610100808354040283529160200191610424565b820191906000526020600020905b81548152906001019060200180831161040757829003601f168201915b50505050509080600201805461043990611707565b80601f016020809104026020016040519081016040528092919081815260200182805461046590611707565b80156104b25780601f10610487576101008083540402835291602001916104b2565b820191906000526020600020905b81548152906001019060200180831161049557829003601f168201915b5050505050908060030160009054906101000a900473ffffffffffffffffffffffffffffffffffffffff16905084565b60008054906101000a900473ffffffffffffffffffffffffffffffffffffffff1673ffffffffffffffffffffffffffffffffffffffff163373ffffffffffffffffffffffffffffffffffffffff1614610570576040517f08c379a0000000000000000000000000000000000000000000000000000000008152600401610567906114d5565b60405180910390fd5b6000600260008373ffffffffffffffffffffffffffffffffffffffff1673ffffffffffffffffffffffffffffffffffffffff168152602001908152602001600020905060018160000160006101000a81548160ff021916908315150217905550838160010190805190602001906105e8929190610d93565b50818160030160006101000a81548173ffffffffffffffffffffffffffffffffffffffff021916908373ffffffffffffffffffffffffffffffffffffffff16021790555082816002019080519060200190610644929190610d93565b507fb221316567f463674f49cbde1b8ee91580960ece70679c5a79bf92f916d8a0288483604051610676929190611485565b60405180910390a150505050565b60008054906101000a900473ffffffffffffffffffffffffffffffffffffffff1681565b60011515600260003373ffffffffffffffffffffffffffffffffffffffff1673ffffffffffffffffffffffffffffffffffffffff16815260200190815260200160002060000160009054906101000a900460ff1615151461073e576040517f08c379a0000000000000000000000000000000000000000000000000000000008152600401610735906114b5565b60405180910390fd5b6000600360006001548152602001908152602001600020905060018160000160006101000a81548160ff021916908315150217905550600154816001018190555083816002019080519060200190610797929190610d93565b50828160030190805190602001906107b0929190610d93565b50818160040181905550338160050160006101000a81548173ffffffffffffffffffffffffffffffffffffffff021916908373ffffffffffffffffffffffffffffffffffffffff160217905550338160060160006101000a81548173ffffffffffffffffffffffffffffffffffffffff021916908373ffffffffffffffffffffffffffffffffffffffff16021790555080600701339080600181540180825580915050600190039060005260206000200160009091909190916101000a81548173ffffffffffffffffffffffffffffffffffffffff021916908373ffffffffffffffffffffffffffffffffffffffff160217905550600160008154809291906108b890611739565b91905055507fe8bb4e90e950f7b76a8c4e472b3b5e01d41c478f9eeaea36b4ba991f51133f91600180546108ec9190611649565b336040516108fb929190611559565b60405180910390a150505050565b610911610e19565b60036000838152602001908152602001600020604051806101000160405290816000820160009054906101000a900460ff161515151581526020016001820154815260200160028201805461096590611707565b80601f016020809104026020016040519081016040528092919081815260200182805461099190611707565b80156109de5780601f106109b3576101008083540402835291602001916109de565b820191906000526020600020905b8154815290600101906020018083116109c157829003601f168201915b505050505081526020016003820180546109f790611707565b80601f0160208091040260200160405190810160405280929190818152602001828054610a2390611707565b8015610a705780601f10610a4557610100808354040283529160200191610a70565b820191906000526020600020905b815481529060010190602001808311610a5357829003601f168201915b50505050508152602001600482015481526020016005820160009054906101000a900473ffffffffffffffffffffffffffffffffffffffff1673ffffffffffffffffffffffffffffffffffffffff1673ffffffffffffffffffffffffffffffffffffffff1681526020016006820160009054906101000a900473ffffffffffffffffffffffffffffffffffffffff1673ffffffffffffffffffffffffffffffffffffffff1673ffffffffffffffffffffffffffffffffffffffff16815260200160078201805480602002602001604051908101604052809291908181526020018280548015610bb457602002820191906000526020600020905b8160009054906101000a900473ffffffffffffffffffffffffffffffffffffffff1673ffffffffffffffffffffffffffffffffffffffff1681526020019060010190808311610b6a575b5050505050815250509050919050565b60006003600084815260200190815260200160002090503373ffffffffffffffffffffffffffffffffffffffff168160060160009054906101000a900473ffffffffffffffffffffffffffffffffffffffff1673ffffffffffffffffffffffffffffffffffffffff1614610c6d576040517f08c379a0000000000000000000000000000000000000000000000000000000008152600401610c64906114f5565b60405180910390fd5b818160060160006101000a81548173ffffffffffffffffffffffffffffffffffffffff021916908373ffffffffffffffffffffffffffffffffffffffff16021790555080600701829080600181540180825580915050600190039060005260206000200160009091909190916101000a81548173ffffffffffffffffffffffffffffffffffffffff021916908373ffffffffffffffffffffffffffffffffffffffff1602179055507f17f6791f79c251dfe73501956852b1099624d6a4c5ce9744ad98825c5b8dd91a8383604051610d46929190611559565b60405180910390a1505050565b60405180608001604052806000151581526020016060815260200160608152602001600073ffffffffffffffffffffffffffffffffffffffff1681525090565b828054610d9f90611707565b90600052602060002090601f016020900481019282610dc15760008555610e08565b82601f10610dda57805160ff1916838001178555610e08565b82800160010185558215610e08579182015b82811115610e07578251825591602001919060010190610dec565b5b509050610e159190610e8c565b5090565b60405180610100016040528060001515815260200160008152602001606081526020016060815260200160008152602001600073ffffffffffffffffffffffffffffffffffffffff168152602001600073ffffffffffffffffffffffffffffffffffffffff168152602001606081525090565b5b80821115610ea5576000816000905550600101610e8d565b5090565b6000610ebc610eb7846115b3565b611582565b905082815260208101848484011115610ed457600080fd5b610edf8482856116c5565b509392505050565b600081359050610ef681611820565b92915050565b600082601f830112610f0d57600080fd5b8135610f1d848260208601610ea9565b91505092915050565b600081359050610f3581611837565b92915050565b600060208284031215610f4d57600080fd5b6000610f5b84828501610ee7565b91505092915050565b600080600060608486031215610f7957600080fd5b600084013567ffffffffffffffff811115610f9357600080fd5b610f9f86828701610efc565b935050602084013567ffffffffffffffff811115610fbc57600080fd5b610fc886828701610efc565b9250506040610fd986828701610ee7565b9150509250925092565b600080600060608486031215610ff857600080fd5b600084013567ffffffffffffffff81111561101257600080fd5b61101e86828701610efc565b935050602084013567ffffffffffffffff81111561103b57600080fd5b61104786828701610efc565b925050604061105886828701610f26565b9150509250925092565b60006020828403121561107457600080fd5b600061108284828501610f26565b91505092915050565b6000806040838503121561109e57600080fd5b60006110ac85828601610f26565b92505060206110bd85828601610ee7565b9150509250929050565b60006110d383836110df565b60208301905092915050565b6110e88161167d565b82525050565b6110f78161167d565b82525050565b6000611108826115f3565b6111128185611616565b935061111d836115e3565b8060005b8381101561114e57815161113588826110c7565b975061114083611609565b925050600181019050611121565b5085935050505092915050565b6111648161168f565b82525050565b6111738161168f565b82525050565b6000611184826115fe565b61118e8185611627565b935061119e8185602086016116d4565b6111a78161180f565b840191505092915050565b60006111bd826115fe565b6111c78185611638565b93506111d78185602086016116d4565b6111e08161180f565b840191505092915050565b60006111f8601b83611638565b91507f596f7520617265206e6f742061204d616e7566616374757265722100000000006000830152602082019050919050565b6000611238603283611638565b91507f4f6e6c79206f776e657220697320617574686f726973656420746f206372656160008301527f74652061206d616e7566616374757265722100000000000000000000000000006020830152604082019050919050565b600061129e600e83611638565b91507f4e6f7420617574686f72697a65640000000000000000000000000000000000006000830152602082019050919050565b60006080830160008301516112e9600086018261115b565b50602083015184820360208601526113018282611179565b9150506040830151848203604086015261131b8282611179565b915050606083015161133060608601826110df565b508091505092915050565b600061010083016000830151611354600086018261115b565b50602083015161136760208601826113f9565b506040830151848203604086015261137f8282611179565b915050606083015184820360608601526113998282611179565b91505060808301516113ae60808601826113f9565b5060a08301516113c160a08601826110df565b5060c08301516113d460c08601826110df565b5060e083015184820360e08601526113ec82826110fd565b9150508091505092915050565b611402816116bb565b82525050565b611411816116bb565b82525050565b600060208201905061142c60008301846110ee565b92915050565b6000608082019050611447600083018761116a565b818103602083015261145981866111b2565b9050818103604083015261146d81856111b2565b905061147c60608301846110ee565b95945050505050565b6000604082019050818103600083015261149f81856111b2565b90506114ae60208301846110ee565b9392505050565b600060208201905081810360008301526114ce816111eb565b9050919050565b600060208201905081810360008301526114ee8161122b565b9050919050565b6000602082019050818103600083015261150e81611291565b9050919050565b6000602082019050818103600083015261152f81846112d1565b905092915050565b60006020820190508181036000830152611551818461133b565b905092915050565b600060408201905061156e6000830185611408565b61157b60208301846110ee565b9392505050565b6000604051905081810181811067ffffffffffffffff821117156115a9576115a86117e0565b5b8060405250919050565b600067ffffffffffffffff8211156115ce576115cd6117e0565b5b601f19601f8301169050602081019050919050565b6000819050602082019050919050565b600081519050919050565b600081519050919050565b6000602082019050919050565b600082825260208201905092915050565b600082825260208201905092915050565b600082825260208201905092915050565b6000611654826116bb565b915061165f836116bb565b92508282101561167257611671611782565b5b828203905092915050565b60006116888261169b565b9050919050565b60008115159050919050565b600073ffffffffffffffffffffffffffffffffffffffff82169050919050565b6000819050919050565b82818337600083830152505050565b60005b838110156116f25780820151818401526020810190506116d7565b83811115611701576000848401525b50505050565b6000600282049050600182168061171f57607f821691505b60208210811415611733576117326117b1565b5b50919050565b6000611744826116bb565b91507fffffffffffffffffffffffffffffffffffffffffffffffffffffffffffffffff82141561177757611776611782565b5b600182019050919050565b7f4e487b7100000000000000000000000000000000000000000000000000000000600052601160045260246000fd5b7f4e487b7100000000000000000000000000000000000000000000000000000000600052602260045260246000fd5b7f4e487b7100000000000000000000000000000000000000000000000000000000600052604160045260246000fd5b6000601f19601f8301169050919050565b6118298161167d565b811461183457600080fd5b50565b611840816116bb565b811461184b57600080fd5b5056fea264697066735822122009cd3bc2cc2880b5355b574f5454fc3e3774dd981ddb41d3651af58f53ef2f1764736f6c63430008000033",
  "linkReferences": {},
  "deployedLinkReferences": {}
}