{
  "_format": "hh-sol-artifact-1",
  "contractName": "ProductDetection",
  "sourceName": "contracts/ProductDetection.sol",
  "abi": [
    {
      "inputs": [],
      "stateMutability": "nonpayable",
      "type": "constructor"
    },
    {
      "anonymous": false,
      "inputs": [
        {
          "indexed": false,
          "internalType": "string",
          "name": "name",
          "type": "string"
        },
        {
          "indexed": false,
          "internalType": "address",
          "name": "_address",
          "type": "address"
        }
      ],
      "name": "ManufacturerCreated",
      "type": "event"
    },
    {
      "anonymous": false,
      "inputs": [
        {
          "indexed": false,
          "internalType": "uint256",
          "name": "id",
          "type": "uint256"
        },
        {
          "indexed": false,
          "internalType": "address",
          "name": "newOwner",
          "type": "address"
        }
      ],
      "name": "OwnershipUpdated",
      "type": "event"
    },
    {
      "anonymous": false,
      "inputs": [
        {
          "indexed": false,
          "internalType": "uint256",
          "name": "id",
          "type": "uint256"
        },
        {
          "indexed": false,
          "internalType": "address",
          "name": "manufacturer",
          "type": "address"
        }
      ],
      "name": "ProductCreated",
      "type": "event"
    },
    {
      "inputs": [
        {
          "internalType": "string",
          "name": "_name",
          "type": "string"
        },
        {
          "internalType": "string",
          "name": "_website",
          "type": "string"
        },
        {
          "internalType": "address",
          "name": "_address",
          "type": "address"
        }
      ],
      "name": "createManufacturer",
      "outputs": [],
      "stateMutability": "nonpayable",
      "type": "function"
    },
    {
      "inputs": [
        {
          "internalType": "string",
          "name": "_name",
          "type": "string"
        },
        {
          "internalType": "string",
          "name": "_model",
          "type": "string"
        },
        {
          "internalType": "uint256",
          "name": "_price",
          "type": "uint256"
        }
      ],
      "name": "createProduct",
      "outputs": [],
      "stateMutability": "nonpayable",
      "type": "function"
    },
    {
      "inputs": [
        {
          "internalType": "address",
          "name": "_address",
          "type": "address"
        }
      ],
      "name": "getManufacture",
      "outputs": [
        {
          "components": [
            {
              "internalType": "bool",
              "name": "exists",
              "type": "bool"
            },
            {
              "internalType": "string",
              "name": "name",
              "type": "string"
            },
            {
              "internalType": "string",
              "name": "website",
              "type": "string"
            },
            {
              "internalType": "address",
              "name": "wallet_address",
              "type": "address"
            }
          ],
          "internalType": "struct ProductDetection.Manufacturer",
          "name": "",
          "type": "tuple"
        }
      ],
      "stateMutability": "view",
      "type": "function"
    },
    {
      "inputs": [
        {
          "internalType": "uint256",
          "name": "_id",
          "type": "uint256"
        }
      ],
      "name": "getProduct",
      "outputs": [
        {
          "components": [
            {
              "internalType": "bool",
              "name": "exists",
              "type": "bool"
            },
            {
              "internalType": "uint256",
              "name": "id",
              "type": "uint256"
            },
            {
              "internalType": "string",
              "name": "name",
              "type": "string"
            },
            {
              "internalType": "string",
              "name": "model",
              "type": "string"
            },
            {
              "internalType": "uint256",
              "name": "price",
              "type": "uint256"
            },
            {
              "internalType": "address",
              "name": "manufacturer",
              "type": "address"
            },
            {
              "internalType": "uint256",
              "name": "manufacturedTimestamp",
              "type": "uint256"
            },
            {
              "internalType": "address",
              "name": "curOwner",
              "type": "address"
            },
            {
              "components": [
                {
                  "internalType": "address",
                  "name": "curOwner",
                  "type": "address"
                },
                {
                  "internalType": "uint256",
                  "name": "curTimestamp",
                  "type": "uint256"
                }
              ],
              "internalType": "struct ProductDetection.productData[]",
              "name": "owners",
              "type": "tuple[]"
            }
          ],
          "internalType": "struct ProductDetection.Product",
          "name": "",
          "type": "tuple"
        }
      ],
      "stateMutability": "view",
      "type": "function"
    },
    {
      "inputs": [
        {
          "internalType": "address",
          "name": "",
          "type": "address"
        }
      ],
      "name": "manufacturers",
      "outputs": [
        {
          "internalType": "bool",
          "name": "exists",
          "type": "bool"
        },
        {
          "internalType": "string",
          "name": "name",
          "type": "string"
        },
        {
          "internalType": "string",
          "name": "website",
          "type": "string"
        },
        {
          "internalType": "address",
          "name": "wallet_address",
          "type": "address"
        }
      ],
      "stateMutability": "view",
      "type": "function"
    },
    {
      "inputs": [],
      "name": "owner",
      "outputs": [
        {
          "internalType": "address",
          "name": "",
          "type": "address"
        }
      ],
      "stateMutability": "view",
      "type": "function"
    },
    {
      "inputs": [
        {
          "internalType": "uint256",
          "name": "_id",
          "type": "uint256"
        },
        {
          "internalType": "address",
          "name": "_newOwner",
          "type": "address"
        }
      ],
      "name": "updateOwnership",
      "outputs": [],
      "stateMutability": "nonpayable",
      "type": "function"
    }
  ],
  "bytecode": "0x6080604052600060015534801561001557600080fd5b50336000806101000a81548173ffffffffffffffffffffffffffffffffffffffff021916908373ffffffffffffffffffffffffffffffffffffffff1602179055506119af806100656000396000f3fe608060405234801561001057600080fd5b506004361061007d5760003560e01c80638da5cb5b1161005b5780638da5cb5b14610101578063a14222091461011f578063b9db15b41461013b578063cc0266f71461016b5761007d565b8063459ce122146100825780636b5eb09c146100b25780636c640a5e146100e5575b600080fd5b61009c60048036038101906100979190611022565b610187565b6040516100a99190611640565b60405180910390f35b6100cc60048036038101906100c79190611022565b610375565b6040516100dc949392919061155d565b60405180910390f35b6100ff60048036038101906100fa919061104b565b6104e2565b005b610109610684565b6040516101169190611542565b60405180910390f35b610139600480360381019061013491906110ca565b6106a8565b005b61015560048036038101906101509190611149565b610962565b6040516101629190611662565b60405180910390f35b61018560048036038101906101809190611172565b610c58565b005b61018f610e33565b600260008373ffffffffffffffffffffffffffffffffffffffff1673ffffffffffffffffffffffffffffffffffffffff1681526020019081526020016000206040518060800160405290816000820160009054906101000a900460ff1615151515815260200160018201805461020490611832565b80601f016020809104026020016040519081016040528092919081815260200182805461023090611832565b801561027d5780601f106102525761010080835404028352916020019161027d565b820191906000526020600020905b81548152906001019060200180831161026057829003601f168201915b5050505050815260200160028201805461029690611832565b80601f01602080910402602001604051908101604052809291908181526020018280546102c290611832565b801561030f5780601f106102e45761010080835404028352916020019161030f565b820191906000526020600020905b8154815290600101906020018083116102f257829003601f168201915b505050505081526020016003820160009054906101000a900473ffffffffffffffffffffffffffffffffffffffff1673ffffffffffffffffffffffffffffffffffffffff1673ffffffffffffffffffffffffffffffffffffffff16815250509050919050565b60026020528060005260406000206000915090508060000160009054906101000a900460ff16908060010180546103ab90611832565b80601f01602080910402602001604051908101604052809291908181526020018280546103d790611832565b80156104245780601f106103f957610100808354040283529160200191610424565b820191906000526020600020905b81548152906001019060200180831161040757829003601f168201915b50505050509080600201805461043990611832565b80601f016020809104026020016040519081016040528092919081815260200182805461046590611832565b80156104b25780601f10610487576101008083540402835291602001916104b2565b820191906000526020600020905b81548152906001019060200180831161049557829003601f168201915b5050505050908060030160009054906101000a900473ffffffffffffffffffffffffffffffffffffffff16905084565b60008054906101000a900473ffffffffffffffffffffffffffffffffffffffff1673ffffffffffffffffffffffffffffffffffffffff163373ffffffffffffffffffffffffffffffffffffffff1614610570576040517f08c379a000000000000000000000000000000000000000000000000000000000815260040161056790611600565b60405180910390fd5b6000600260008373ffffffffffffffffffffffffffffffffffffffff1673ffffffffffffffffffffffffffffffffffffffff168152602001908152602001600020905060018160000160006101000a81548160ff021916908315150217905550838160010190805190602001906105e8929190610e73565b50818160030160006101000a81548173ffffffffffffffffffffffffffffffffffffffff021916908373ffffffffffffffffffffffffffffffffffffffff16021790555082816002019080519060200190610644929190610e73565b507fb221316567f463674f49cbde1b8ee91580960ece70679c5a79bf92f916d8a02884836040516106769291906115b0565b60405180910390a150505050565b60008054906101000a900473ffffffffffffffffffffffffffffffffffffffff1681565b60011515600260003373ffffffffffffffffffffffffffffffffffffffff1673ffffffffffffffffffffffffffffffffffffffff16815260200190815260200160002060000160009054906101000a900460ff1615151461073e576040517f08c379a0000000000000000000000000000000000000000000000000000000008152600401610735906115e0565b60405180910390fd5b6000600360006001548152602001908152602001600020905060018160000160006101000a81548160ff021916908315150217905550600154816001018190555083816002019080519060200190610797929190610e73565b50828160030190805190602001906107b0929190610e73565b50818160040181905550428160060181905550338160050160006101000a81548173ffffffffffffffffffffffffffffffffffffffff021916908373ffffffffffffffffffffffffffffffffffffffff160217905550338160070160006101000a81548173ffffffffffffffffffffffffffffffffffffffff021916908373ffffffffffffffffffffffffffffffffffffffff160217905550600060405180604001604052803373ffffffffffffffffffffffffffffffffffffffff168152602001836006015481525090508160080181908060018154018082558091505060019003906000526020600020906002020160009091909190915060008201518160000160006101000a81548173ffffffffffffffffffffffffffffffffffffffff021916908373ffffffffffffffffffffffffffffffffffffffff1602179055506020820151816001015550506001600081548092919061091090611864565b91905055507fe8bb4e90e950f7b76a8c4e472b3b5e01d41c478f9eeaea36b4ba991f51133f91600180546109449190611774565b33604051610953929190611684565b60405180910390a15050505050565b61096a610ef9565b60036000838152602001908152602001600020604051806101200160405290816000820160009054906101000a900460ff16151515158152602001600182015481526020016002820180546109be90611832565b80601f01602080910402602001604051908101604052809291908181526020018280546109ea90611832565b8015610a375780601f10610a0c57610100808354040283529160200191610a37565b820191906000526020600020905b815481529060010190602001808311610a1a57829003601f168201915b50505050508152602001600382018054610a5090611832565b80601f0160208091040260200160405190810160405280929190818152602001828054610a7c90611832565b8015610ac95780601f10610a9e57610100808354040283529160200191610ac9565b820191906000526020600020905b815481529060010190602001808311610aac57829003601f168201915b50505050508152602001600482015481526020016005820160009054906101000a900473ffffffffffffffffffffffffffffffffffffffff1673ffffffffffffffffffffffffffffffffffffffff1673ffffffffffffffffffffffffffffffffffffffff168152602001600682015481526020016007820160009054906101000a900473ffffffffffffffffffffffffffffffffffffffff1673ffffffffffffffffffffffffffffffffffffffff1673ffffffffffffffffffffffffffffffffffffffff16815260200160088201805480602002602001604051908101604052809291908181526020016000905b82821015610c4957838290600052602060002090600202016040518060400160405290816000820160009054906101000a900473ffffffffffffffffffffffffffffffffffffffff1673ffffffffffffffffffffffffffffffffffffffff1673ffffffffffffffffffffffffffffffffffffffff16815260200160018201548152505081526020019060010190610bb7565b50505050815250509050919050565b60006003600084815260200190815260200160002090503373ffffffffffffffffffffffffffffffffffffffff168160070160009054906101000a900473ffffffffffffffffffffffffffffffffffffffff1673ffffffffffffffffffffffffffffffffffffffff1614610d01576040517f08c379a0000000000000000000000000000000000000000000000000000000008152600401610cf890611620565b60405180910390fd5b818160070160006101000a81548173ffffffffffffffffffffffffffffffffffffffff021916908373ffffffffffffffffffffffffffffffffffffffff160217905550600060405180604001604052808473ffffffffffffffffffffffffffffffffffffffff1681526020014281525090508160080181908060018154018082558091505060019003906000526020600020906002020160009091909190915060008201518160000160006101000a81548173ffffffffffffffffffffffffffffffffffffffff021916908373ffffffffffffffffffffffffffffffffffffffff1602179055506020820151816001015550507f17f6791f79c251dfe73501956852b1099624d6a4c5ce9744ad98825c5b8dd91a8484604051610e25929190611684565b60405180910390a150505050565b60405180608001604052806000151581526020016060815260200160608152602001600073ffffffffffffffffffffffffffffffffffffffff1681525090565b828054610e7f90611832565b90600052602060002090601f016020900481019282610ea15760008555610ee8565b82601f10610eba57805160ff1916838001178555610ee8565b82800160010185558215610ee8579182015b82811115610ee7578251825591602001919060010190610ecc565b5b509050610ef59190610f73565b5090565b60405180610120016040528060001515815260200160008152602001606081526020016060815260200160008152602001600073ffffffffffffffffffffffffffffffffffffffff16815260200160008152602001600073ffffffffffffffffffffffffffffffffffffffff168152602001606081525090565b5b80821115610f8c576000816000905550600101610f74565b5090565b6000610fa3610f9e846116de565b6116ad565b905082815260208101848484011115610fbb57600080fd5b610fc68482856117f0565b509392505050565b600081359050610fdd8161194b565b92915050565b600082601f830112610ff457600080fd5b8135611004848260208601610f90565b91505092915050565b60008135905061101c81611962565b92915050565b60006020828403121561103457600080fd5b600061104284828501610fce565b91505092915050565b60008060006060848603121561106057600080fd5b600084013567ffffffffffffffff81111561107a57600080fd5b61108686828701610fe3565b935050602084013567ffffffffffffffff8111156110a357600080fd5b6110af86828701610fe3565b92505060406110c086828701610fce565b9150509250925092565b6000806000606084860312156110df57600080fd5b600084013567ffffffffffffffff8111156110f957600080fd5b61110586828701610fe3565b935050602084013567ffffffffffffffff81111561112257600080fd5b61112e86828701610fe3565b925050604061113f8682870161100d565b9150509250925092565b60006020828403121561115b57600080fd5b60006111698482850161100d565b91505092915050565b6000806040838503121561118557600080fd5b60006111938582860161100d565b92505060206111a485828601610fce565b9150509250929050565b60006111ba83836114f5565b60408301905092915050565b6111cf816117a8565b82525050565b6111de816117a8565b82525050565b60006111ef8261171e565b6111f98185611741565b93506112048361170e565b8060005b8381101561123557815161121c88826111ae565b975061122783611734565b925050600181019050611208565b5085935050505092915050565b61124b816117ba565b82525050565b61125a816117ba565b82525050565b600061126b82611729565b6112758185611752565b93506112858185602086016117ff565b61128e8161193a565b840191505092915050565b60006112a482611729565b6112ae8185611763565b93506112be8185602086016117ff565b6112c78161193a565b840191505092915050565b60006112df601b83611763565b91507f596f7520617265206e6f742061204d616e7566616374757265722100000000006000830152602082019050919050565b600061131f603283611763565b91507f4f6e6c79206f776e657220697320617574686f726973656420746f206372656160008301527f74652061206d616e7566616374757265722100000000000000000000000000006020830152604082019050919050565b6000611385600e83611763565b91507f4e6f7420617574686f72697a65640000000000000000000000000000000000006000830152602082019050919050565b60006080830160008301516113d06000860182611242565b50602083015184820360208601526113e88282611260565b915050604083015184820360408601526114028282611260565b915050606083015161141760608601826111c6565b508091505092915050565b60006101208301600083015161143b6000860182611242565b50602083015161144e6020860182611524565b50604083015184820360408601526114668282611260565b915050606083015184820360608601526114808282611260565b91505060808301516114956080860182611524565b5060a08301516114a860a08601826111c6565b5060c08301516114bb60c0860182611524565b5060e08301516114ce60e08601826111c6565b506101008301518482036101008601526114e882826111e4565b9150508091505092915050565b60408201600082015161150b60008501826111c6565b50602082015161151e6020850182611524565b50505050565b61152d816117e6565b82525050565b61153c816117e6565b82525050565b600060208201905061155760008301846111d5565b92915050565b60006080820190506115726000830187611251565b81810360208301526115848186611299565b905081810360408301526115988185611299565b90506115a760608301846111d5565b95945050505050565b600060408201905081810360008301526115ca8185611299565b90506115d960208301846111d5565b9392505050565b600060208201905081810360008301526115f9816112d2565b9050919050565b6000602082019050818103600083015261161981611312565b9050919050565b6000602082019050818103600083015261163981611378565b9050919050565b6000602082019050818103600083015261165a81846113b8565b905092915050565b6000602082019050818103600083015261167c8184611422565b905092915050565b60006040820190506116996000830185611533565b6116a660208301846111d5565b9392505050565b6000604051905081810181811067ffffffffffffffff821117156116d4576116d361190b565b5b8060405250919050565b600067ffffffffffffffff8211156116f9576116f861190b565b5b601f19601f8301169050602081019050919050565b6000819050602082019050919050565b600081519050919050565b600081519050919050565b6000602082019050919050565b600082825260208201905092915050565b600082825260208201905092915050565b600082825260208201905092915050565b600061177f826117e6565b915061178a836117e6565b92508282101561179d5761179c6118ad565b5b828203905092915050565b60006117b3826117c6565b9050919050565b60008115159050919050565b600073ffffffffffffffffffffffffffffffffffffffff82169050919050565b6000819050919050565b82818337600083830152505050565b60005b8381101561181d578082015181840152602081019050611802565b8381111561182c576000848401525b50505050565b6000600282049050600182168061184a57607f821691505b6020821081141561185e5761185d6118dc565b5b50919050565b600061186f826117e6565b91507fffffffffffffffffffffffffffffffffffffffffffffffffffffffffffffffff8214156118a2576118a16118ad565b5b600182019050919050565b7f4e487b7100000000000000000000000000000000000000000000000000000000600052601160045260246000fd5b7f4e487b7100000000000000000000000000000000000000000000000000000000600052602260045260246000fd5b7f4e487b7100000000000000000000000000000000000000000000000000000000600052604160045260246000fd5b6000601f19601f8301169050919050565b611954816117a8565b811461195f57600080fd5b50565b61196b816117e6565b811461197657600080fd5b5056fea264697066735822122094dce81d1abe510fcdd8d8ca5600acbee61c2af9ca522e2533a3f539b67f434664736f6c63430008000033",
  "linkReferences": {},
  "deployedLinkReferences": {}
}