{
    "_format": "hh-sol-artifact-1",
    "contractName": "Patient",
    "sourceName": "contracts/Patient.sol",
    "abi": [
        {
            "inputs": [],
            "stateMutability": "nonpayable",
            "type": "constructor"
        },
        {
            "inputs": [
                {
                    "internalType": "uint256",
                    "name": "patient_id",
                    "type": "uint256"
                }
            ],
            "name": "retreive_attendant_details",
            "outputs": [
                {
                    "internalType": "string",
                    "name": "",
                    "type": "string"
                },
                {
                    "internalType": "string",
                    "name": "",
                    "type": "string"
                },
                {
                    "internalType": "uint256",
                    "name": "",
                    "type": "uint256"
                }
            ],
            "stateMutability": "view",
            "type": "function"
        },
        {
            "inputs": [
                {
                    "internalType": "uint256",
                    "name": "patient_id",
                    "type": "uint256"
                }
            ],
            "name": "retreive_patient_details",
            "outputs": [
                {
                    "internalType": "string",
                    "name": "",
                    "type": "string"
                },
                {
                    "internalType": "uint256",
                    "name": "",
                    "type": "uint256"
                },
                {
                    "internalType": "string",
                    "name": "",
                    "type": "string"
                },
                {
                    "internalType": "string",
                    "name": "",
                    "type": "string"
                },
                {
                    "internalType": "uint256",
                    "name": "",
                    "type": "uint256"
                },
                {
                    "internalType": "string",
                    "name": "",
                    "type": "string"
                },
                {
                    "internalType": "uint256",
                    "name": "",
                    "type": "uint256"
                },
                {
                    "internalType": "string",
                    "name": "",
                    "type": "string"
                },
                {
                    "internalType": "uint256",
                    "name": "",
                    "type": "uint256"
                }
            ],
            "stateMutability": "view",
            "type": "function"
        },
        {
            "inputs": [
                {
                    "internalType": "uint256",
                    "name": "patient_id",
                    "type": "uint256"
                },
                {
                    "internalType": "string",
                    "name": "_attendant_name",
                    "type": "string"
                },
                {
                    "internalType": "string",
                    "name": "_attendant_relation",
                    "type": "string"
                },
                {
                    "internalType": "uint256",
                    "name": "_attendant_phn_no",
                    "type": "uint256"
                }
            ],
            "name": "store_attendant_details",
            "outputs": [],
            "stateMutability": "nonpayable",
            "type": "function"
        },
        {
            "inputs": [
                {
                    "internalType": "uint256",
                    "name": "patient_id",
                    "type": "uint256"
                },
                {
                    "internalType": "string",
                    "name": "_patient_name",
                    "type": "string"
                },
                {
                    "internalType": "uint256",
                    "name": "_age",
                    "type": "uint256"
                },
                {
                    "internalType": "string",
                    "name": "_gender",
                    "type": "string"
                },
                {
                    "internalType": "string",
                    "name": "_height",
                    "type": "string"
                },
                {
                    "internalType": "uint256",
                    "name": "_weight",
                    "type": "uint256"
                },
                {
                    "internalType": "string",
                    "name": "_patient_address",
                    "type": "string"
                },
                {
                    "internalType": "uint256",
                    "name": "_phone_no",
                    "type": "uint256"
                },
                {
                    "internalType": "string",
                    "name": "_email_id",
                    "type": "string"
                },
                {
                    "internalType": "uint256",
                    "name": "_date",
                    "type": "uint256"
                }
            ],
            "name": "store_patient_details",
            "outputs": [],
            "stateMutability": "nonpayable",
            "type": "function"
        }
    ],
    "bytecode": "0x608060405234801561001057600080fd5b507376d428d0cdbeab50ecaaac3683ce346019012b29601160006101000a81548173ffffffffffffffffffffffffffffffffffffffff021916908373ffffffffffffffffffffffffffffffffffffffff160217905550611096806100756000396000f3fe608060405234801561001057600080fd5b506004361061004c5760003560e01c806365d4352a14610051578063c909f8f714610089578063d734f9b7146100a5578063f5b31bfe146100d7575b600080fd5b61006b60048036038101906100669190610b33565b6100f3565b60405161008099989796959493929190610e0f565b60405180910390f35b6100a3600480360381019061009e9190610bef565b610489565b005b6100bf60048036038101906100ba9190610b33565b6106c1565b6040516100ce93929190610dca565b60405180910390f35b6100f160048036038101906100ec9190610b5c565b61083c565b005b6060600060608060006060600060606000806000808c81526020019081526020016000206040518061016001604052908160008201805461013390610fa8565b80601f016020809104026020016040519081016040528092919081815260200182805461015f90610fa8565b80156101ac5780601f10610181576101008083540402835291602001916101ac565b820191906000526020600020905b81548152906001019060200180831161018f57829003601f168201915b50505050508152602001600182015481526020016002820180546101cf90610fa8565b80601f01602080910402602001604051908101604052809291908181526020018280546101fb90610fa8565b80156102485780601f1061021d57610100808354040283529160200191610248565b820191906000526020600020905b81548152906001019060200180831161022b57829003601f168201915b5050505050815260200160038201805461026190610fa8565b80601f016020809104026020016040519081016040528092919081815260200182805461028d90610fa8565b80156102da5780601f106102af576101008083540402835291602001916102da565b820191906000526020600020905b8154815290600101906020018083116102bd57829003601f168201915b50505050508152602001600482015481526020016005820180546102fd90610fa8565b80601f016020809104026020016040519081016040528092919081815260200182805461032990610fa8565b80156103765780601f1061034b57610100808354040283529160200191610376565b820191906000526020600020905b81548152906001019060200180831161035957829003601f168201915b505050505081526020016006820154815260200160078201805461039990610fa8565b80601f01602080910402602001604051908101604052809291908181526020018280546103c590610fa8565b80156104125780601f106103e757610100808354040283529160200191610412565b820191906000526020600020905b8154815290600101906020018083116103f557829003601f168201915b505050505081526020016008820154815260200160098201548152602001600a820154815250509050806000015181602001518260400151836060015184608001518560a001518660c001518760e00151886101000151995099509950995099509950995099509950509193959799909294969850565b601160009054906101000a900473ffffffffffffffffffffffffffffffffffffffff1673ffffffffffffffffffffffffffffffffffffffff163373ffffffffffffffffffffffffffffffffffffffff1614610519576040517f08c379a000000000000000000000000000000000000000000000000000000000815260040161051090610ebf565b60405180910390fd5b8860026000019080519060200190610532929190610986565b508760026001018190555086600280019080519060200190610555929190610986565b50856002600301908051906020019061056f929190610986565b50846002600401819055508360026005019080519060200190610593929190610986565b508260026006018190555081600260070190805190602001906105b7929190610986565b508060026008018190555060026000808c815260200190815260200160002060008201816000019080546105ea90610fa8565b6105f5929190610a0c565b5060018201548160010155600282018160020190805461061490610fa8565b61061f929190610a0c565b50600382018160030190805461063490610fa8565b61063f929190610a0c565b5060048201548160040155600582018160050190805461065e90610fa8565b610669929190610a0c565b5060068201548160060155600782018160070190805461068890610fa8565b610693929190610a0c565b506008820154816008015560098201548160090155600a82015481600a015590505050505050505050505050565b60608060008060016000868152602001908152602001600020604051806080016040529081600082015481526020016001820180546106ff90610fa8565b80601f016020809104026020016040519081016040528092919081815260200182805461072b90610fa8565b80156107785780601f1061074d57610100808354040283529160200191610778565b820191906000526020600020905b81548152906001019060200180831161075b57829003601f168201915b5050505050815260200160028201805461079190610fa8565b80601f01602080910402602001604051908101604052809291908181526020018280546107bd90610fa8565b801561080a5780601f106107df5761010080835404028352916020019161080a565b820191906000526020600020905b8154815290600101906020018083116107ed57829003601f168201915b505050505081526020016003820154815250509050806020015181604001518260600151935093509350509193909250565b601160009054906101000a900473ffffffffffffffffffffffffffffffffffffffff1673ffffffffffffffffffffffffffffffffffffffff163373ffffffffffffffffffffffffffffffffffffffff16146108cc576040517f08c379a00000000000000000000000000000000000000000000000000000000081526004016108c390610ebf565b60405180910390fd5b83600d6000018190555082600d60010190805190602001906108ef929190610986565b5081600d6002019080519060200190610909929190610986565b5080600d60030181905550600d6001600086815260200190815260200160002060008201548160000155600182018160010190805461094790610fa8565b610952929190610a0c565b50600282018160020190805461096790610fa8565b610972929190610a0c565b506003820154816003015590505050505050565b82805461099290610fa8565b90600052602060002090601f0160209004810192826109b457600085556109fb565b82601f106109cd57805160ff19168380011785556109fb565b828001600101855582156109fb579182015b828111156109fa5782518255916020019190600101906109df565b5b509050610a089190610a99565b5090565b828054610a1890610fa8565b90600052602060002090601f016020900481019282610a3a5760008555610a88565b82601f10610a4b5780548555610a88565b82800160010185558215610a8857600052602060002091601f016020900482015b82811115610a87578254825591600101919060010190610a6c565b5b509050610a959190610a99565b5090565b5b80821115610ab2576000816000905550600101610a9a565b5090565b6000610ac9610ac484610f10565b610edf565b905082815260208101848484011115610ae157600080fd5b610aec848285610f66565b509392505050565b600082601f830112610b0557600080fd5b8135610b15848260208601610ab6565b91505092915050565b600081359050610b2d81611049565b92915050565b600060208284031215610b4557600080fd5b6000610b5384828501610b1e565b91505092915050565b60008060008060808587031215610b7257600080fd5b6000610b8087828801610b1e565b945050602085013567ffffffffffffffff811115610b9d57600080fd5b610ba987828801610af4565b935050604085013567ffffffffffffffff811115610bc657600080fd5b610bd287828801610af4565b9250506060610be387828801610b1e565b91505092959194509250565b6000806000806000806000806000806101408b8d031215610c0f57600080fd5b6000610c1d8d828e01610b1e565b9a505060208b013567ffffffffffffffff811115610c3a57600080fd5b610c468d828e01610af4565b9950506040610c578d828e01610b1e565b98505060608b013567ffffffffffffffff811115610c7457600080fd5b610c808d828e01610af4565b97505060808b013567ffffffffffffffff811115610c9d57600080fd5b610ca98d828e01610af4565b96505060a0610cba8d828e01610b1e565b95505060c08b013567ffffffffffffffff811115610cd757600080fd5b610ce38d828e01610af4565b94505060e0610cf48d828e01610b1e565b9350506101008b013567ffffffffffffffff811115610d1257600080fd5b610d1e8d828e01610af4565b925050610120610d308d828e01610b1e565b9150509295989b9194979a5092959850565b6000610d4d82610f40565b610d578185610f4b565b9350610d67818560208601610f75565b610d7081611038565b840191505092915050565b6000610d88601583610f4b565b91507f416363657373206973206e6f7420616c6c6f77656400000000000000000000006000830152602082019050919050565b610dc481610f5c565b82525050565b60006060820190508181036000830152610de48186610d42565b90508181036020830152610df88185610d42565b9050610e076040830184610dbb565b949350505050565b6000610120820190508181036000830152610e2a818c610d42565b9050610e39602083018b610dbb565b8181036040830152610e4b818a610d42565b90508181036060830152610e5f8189610d42565b9050610e6e6080830188610dbb565b81810360a0830152610e808187610d42565b9050610e8f60c0830186610dbb565b81810360e0830152610ea18185610d42565b9050610eb1610100830184610dbb565b9a9950505050505050505050565b60006020820190508181036000830152610ed881610d7b565b9050919050565b6000604051905081810181811067ffffffffffffffff82111715610f0657610f05611009565b5b8060405250919050565b600067ffffffffffffffff821115610f2b57610f2a611009565b5b601f19601f8301169050602081019050919050565b600081519050919050565b600082825260208201905092915050565b6000819050919050565b82818337600083830152505050565b60005b83811015610f93578082015181840152602081019050610f78565b83811115610fa2576000848401525b50505050565b60006002820490506001821680610fc057607f821691505b60208210811415610fd457610fd3610fda565b5b50919050565b7f4e487b7100000000000000000000000000000000000000000000000000000000600052602260045260246000fd5b7f4e487b7100000000000000000000000000000000000000000000000000000000600052604160045260246000fd5b6000601f19601f8301169050919050565b61105281610f5c565b811461105d57600080fd5b5056fea264697066735822122008786cb0d75bc27581746d9519e82fc97c918a45167a4584b3d9216427f13aea64736f6c63430008000033",
    "linkReferences": {},
    "deployedLinkReferences": {}
}